:0400000080311C2807
:100008007E14803100308600003087000B1F0D28D9
:100018000E281A282E00981C122813281A288E1C1D
:10002800162817281A288331592380317E10090091
:1000380080311E2820308400003085002F30833125
:10004800A12380317E1020008231B82A2000510877
:1000580086008701403FD300413FD4005308840005
:10006800540885001200253A031D3B283C28F9282E
:100078005108860087010130810741310318810A40
:10008800C001C1010030CE00FF30C200FF30C30004
:10009800510886008701403FD800413FD9005808E1
:1000A8008400590885001200643A03195C285D2809
:1000B800672858088400590885001200693A031D0A
:1000C80066286728EF2852088600870101088400FF
:1000D800850102308107003FDA00013FDB00580844
:1000E800013ED3000030593DD400510886008701F5
:1000F8005308C03F5408C13F2030DE00DB1B852871
:100108008728013088280030D7000130DE025E08D9
:10011800203E860087010A30F0000030F1005B08BD
:10012800F3005A08F2008131CB2180317108F700C1
:100138007008F60083311A2380317608303E81003A
:100148000A30F0000030F10020005B08F3005A0884
:10015800F20081317021803171082000DB007008C5
:10016800DA005A085B040319BA28BB28C0285E08BD
:10017800031DBF28C02889285E080319C428C5287C
:10018800E82857080319C928CA28E8280130DE02D8
:100198005E08203E860087012D308100E8285E0831
:1001A800203E860087010108D300D4015308F200DD
:1001B8005408F3005008F5004F08F4008131142169
:1001C800803101302000DE0720305E06031DED2857
:1001D800EE28D32813292000510886008701013012
:1001E800810741310318810A1329510886008701C4
:1001F800403FD300413FD400530884005408850091
:100208000008D500D6015508F2005608F30050083A
:10021800F5004F08F400813114218031EF280800DF
:1002280074087504031919291A29202974087504F2
:10023800031D1F2920292529720883313B23813179
:100248006F29740886007508870049311600010473
:1002580003192F293029502974088600750887004A
:100268004931403FF600413FF700740886007508A1
:1002780087004231403FF800413FF9007908803A51
:10028800FA007708803A7A02031D4C29760878022A
:1002980003184F2950296F297408860075088700AC
:1002A80042317408840075088500003FF600013F5C
:1002B800F700403F76078400413F773D850072088C
:1002C8008000740886007508870042310130810774
:1002D80041310318810A0800F501F11F74297529B5
:1002E8007C29F009F109F00A0319F10A0130F50037
:1002F800F31F7F2980298729F209F309F20A0319D4
:10030800F30A0130F506F601F701700871040319C4
:100318008E298F29BC290130F40099290130F03544
:10032800F10D890B93290130F407F11F9C299D29B0
:1003380092290130F635F70D890B9E297108730251
:10034800031DA82970087202031CAB29AC29B12926
:100358007008F2027108F33B76140130F136F00CA4
:10036800890BB2290130F402031DBB29BC299D2940
:1003780075080319C029C129C629F609F709F60A1B
:100388000319F70A7708F1007608F0000800F5016C
:10039800F31FCF29D029D729F209F309F20A031943
:1003A800F30A0130F500F11FDA29DB29E029F00909
:1003B800F109F00A0319F10A700871040319E52913
:1003C800E6290D2A0130F400F0290130F035F10D4D
:1003D800890BEA290130F407F11FF329F429E929E7
:1003E80071087302031DFA2970087202031CFD29A3
:1003F800FE29022A7008F2027108F33B0130F13637
:10040800F00C890B032A0130F402031D0C2A0D2A73
:10041800F42975080319112A122A172AF209F3096F
:10042800F20A0319F30A7308F1007208F0000800D1
:10043800D53402340034003400340034AD3403348D
:10044800003400344A3403340034003400340034B7
:1004580000340034003400340034003400340034F4
:1004680000340034003400340034003400340034E4
:1004780000340034003400340034003400340034D4
:1004880074340334683403340034003400340034E2
:10049800253464342E342034483465346C346C3458
:1004A8006F34203457346F3472346C3464342134EC
:1004B8000A340D340034200096019701403098002A
:1004C800FF309100FF309200B7309300FF303E00BC
:1004D800B800FF30C3003730CE00B901C401CF01E6
:1004E800E501BA01C501D001FF30BB00FF30C600ED
:1004F800FF30D100FF30BC00FF30C700FF30D20012
:100508000830E80017303D00CB0010303E00A60050
:10051800BD01BE01BF01C801C901CA01D301D4018F
:10052800D501E901EA01EB01080020006208FD009D
:100538006108FC00AB2A20006008D0005F08CF00EB
:100548007C30D1006308D20080312A2082317C08B7
:1005580084007D0885001200031DB32AB42A9F2A4F
:100568002000DF01E00108008331072382318B1767
:100578000B1750302000E4008230E50083312B2334
:10058800823115302000EA004B30E900BE30890B7B
:10059800CB2AE90BCB2AEA0BCB2A0000BD2A8031F3
:1005A8001C28483022009F0090309D0026309E0075
:1005B80044309B009C010030F0000030F100833192
:1005C800742382310030F0000030F1008331682359
:1005D80082312000C801C90108002E00981080301F
:1005E80033009400023095000730960001309700E0
:1005F800B530F0000330F1008331802382312E00C2
:100608008E109814080083319723833182315F223A
:1006180083318231F12283318231D5228331833192
:10062800B123833183318C2383310800F71B1D2BC1
:100638001E2B1F2B2A2B7609F8007709F900F80AD8
:100648000319F90A7808F6007908F70008006630F7
:100658002000E8000030DF00E0006508E2006408E0
:10066800E1006830E3008231992283310800F1000B
:1006780083314A238331003A0319432B442B3C2B03
:100688007108F0008331AD2383310800F0012E009A
:100698000F1E4F2B502B572B22009E1E542B552BD1
:1006A800572B0130F000700808002E008E10200033
:1006B8004C084D040319612B622B672B4D088A00E7
:1006C8004C080A00833108007008710403196D2B67
:1006D8006E2B732B71082000C5007008C400080039
:1006E800700871040319792B7A2B7F2B710820006D
:1006F800C7007008C6000800700871040319852B2C
:10070800862B8B2B71082000CD007008CC000800C8
:100718002E000C100B140030F0000030F100833173
:10072800A72383310800603031008D008F019101CB
:1007380006309300203092000800640080010131E7
:10074800890BA22B003471082000CB007008CA0066
:100758000800700822009A0008008A3032008C00D5
:04076800080008007D
:020000040001F9
:0A000E008C3FFF3F9F3FFF3FFF3F85
:00000001FF
